{
  "_format": "hh-sol-artifact-1",
  "contractName": "EEGVerifier",
  "sourceName": "contracts/EEGVerifier.sol",
  "abi": [
    {
      "inputs": [
        {
          "internalType": "address",
          "name": "_semaphoreVerifier",
          "type": "address"
        },
        {
          "internalType": "address",
          "name": "_eegRegistry",
          "type": "address"
        }
      ],
      "stateMutability": "nonpayable",
      "type": "constructor"
    },
    {
      "anonymous": false,
      "inputs": [
        {
          "indexed": true,
          "internalType": "uint256",
          "name": "groupId",
          "type": "uint256"
        },
        {
          "indexed": true,
          "internalType": "address",
          "name": "creator",
          "type": "address"
        },
        {
          "indexed": false,
          "internalType": "string",
          "name": "description",
          "type": "string"
        }
      ],
      "name": "GroupCreated",
      "type": "event"
    },
    {
      "anonymous": false,
      "inputs": [
        {
          "indexed": true,
          "internalType": "uint256",
          "name": "nullifierHash",
          "type": "uint256"
        },
        {
          "indexed": true,
          "internalType": "uint256",
          "name": "groupId",
          "type": "uint256"
        }
      ],
      "name": "NullifierUsed",
      "type": "event"
    },
    {
      "anonymous": false,
      "inputs": [
        {
          "indexed": true,
          "internalType": "uint256",
          "name": "groupId",
          "type": "uint256"
        },
        {
          "indexed": false,
          "internalType": "uint256",
          "name": "merkleTreeRoot",
          "type": "uint256"
        },
        {
          "indexed": false,
          "internalType": "uint256",
          "name": "nullifierHash",
          "type": "uint256"
        },
        {
          "indexed": false,
          "internalType": "uint256",
          "name": "signal",
          "type": "uint256"
        },
        {
          "indexed": true,
          "internalType": "address",
          "name": "verifier",
          "type": "address"
        }
      ],
      "name": "ProofVerified",
      "type": "event"
    },
    {
      "inputs": [
        {
          "internalType": "uint256",
          "name": "_groupId",
          "type": "uint256"
        },
        {
          "internalType": "uint256",
          "name": "_identityCommitment",
          "type": "uint256"
        }
      ],
      "name": "addGroupMember",
      "outputs": [],
      "stateMutability": "nonpayable",
      "type": "function"
    },
    {
      "inputs": [
        {
          "internalType": "string",
          "name": "_description",
          "type": "string"
        }
      ],
      "name": "createGroup",
      "outputs": [
        {
          "internalType": "uint256",
          "name": "groupId",
          "type": "uint256"
        }
      ],
      "stateMutability": "nonpayable",
      "type": "function"
    },
    {
      "inputs": [
        {
          "internalType": "uint256",
          "name": "_groupId",
          "type": "uint256"
        }
      ],
      "name": "deactivateGroup",
      "outputs": [],
      "stateMutability": "nonpayable",
      "type": "function"
    },
    {
      "inputs": [],
      "name": "eegRegistry",
      "outputs": [
        {
          "internalType": "contract EEGRegistry",
          "name": "",
          "type": "address"
        }
      ],
      "stateMutability": "view",
      "type": "function"
    },
    {
      "inputs": [
        {
          "internalType": "uint256",
          "name": "_groupId",
          "type": "uint256"
        }
      ],
      "name": "getGroupInfo",
      "outputs": [
        {
          "internalType": "address",
          "name": "admin",
          "type": "address"
        },
        {
          "internalType": "string",
          "name": "description",
          "type": "string"
        },
        {
          "internalType": "uint256",
          "name": "memberCount",
          "type": "uint256"
        },
        {
          "internalType": "bool",
          "name": "active",
          "type": "bool"
        }
      ],
      "stateMutability": "view",
      "type": "function"
    },
    {
      "inputs": [
        {
          "internalType": "uint256",
          "name": "",
          "type": "uint256"
        },
        {
          "internalType": "uint256",
          "name": "",
          "type": "uint256"
        }
      ],
      "name": "groupMembers",
      "outputs": [
        {
          "internalType": "bool",
          "name": "",
          "type": "bool"
        }
      ],
      "stateMutability": "view",
      "type": "function"
    },
    {
      "inputs": [
        {
          "internalType": "uint256",
          "name": "",
          "type": "uint256"
        }
      ],
      "name": "groups",
      "outputs": [
        {
          "internalType": "address",
          "name": "admin",
          "type": "address"
        },
        {
          "internalType": "string",
          "name": "description",
          "type": "string"
        },
        {
          "internalType": "uint256",
          "name": "memberCount",
          "type": "uint256"
        },
        {
          "internalType": "bool",
          "name": "active",
          "type": "bool"
        }
      ],
      "stateMutability": "view",
      "type": "function"
    },
    {
      "inputs": [
        {
          "internalType": "uint256",
          "name": "_groupId",
          "type": "uint256"
        },
        {
          "internalType": "uint256",
          "name": "_identityCommitment",
          "type": "uint256"
        }
      ],
      "name": "isGroupMember",
      "outputs": [
        {
          "internalType": "bool",
          "name": "",
          "type": "bool"
        }
      ],
      "stateMutability": "view",
      "type": "function"
    },
    {
      "inputs": [
        {
          "internalType": "uint256",
          "name": "_nullifierHash",
          "type": "uint256"
        }
      ],
      "name": "isNullifierUsed",
      "outputs": [
        {
          "internalType": "bool",
          "name": "",
          "type": "bool"
        }
      ],
      "stateMutability": "view",
      "type": "function"
    },
    {
      "inputs": [],
      "name": "nextGroupId",
      "outputs": [
        {
          "internalType": "uint256",
          "name": "",
          "type": "uint256"
        }
      ],
      "stateMutability": "view",
      "type": "function"
    },
    {
      "inputs": [
        {
          "internalType": "uint256",
          "name": "_groupId",
          "type": "uint256"
        },
        {
          "internalType": "uint256",
          "name": "_identityCommitment",
          "type": "uint256"
        }
      ],
      "name": "removeGroupMember",
      "outputs": [],
      "stateMutability": "nonpayable",
      "type": "function"
    },
    {
      "inputs": [],
      "name": "semaphoreVerifier",
      "outputs": [
        {
          "internalType": "contract SemaphoreVerifier",
          "name": "",
          "type": "address"
        }
      ],
      "stateMutability": "view",
      "type": "function"
    },
    {
      "inputs": [
        {
          "internalType": "uint256",
          "name": "",
          "type": "uint256"
        }
      ],
      "name": "usedNullifiers",
      "outputs": [
        {
          "internalType": "bool",
          "name": "",
          "type": "bool"
        }
      ],
      "stateMutability": "view",
      "type": "function"
    },
    {
      "inputs": [
        {
          "internalType": "uint256",
          "name": "_groupId",
          "type": "uint256"
        },
        {
          "internalType": "uint256",
          "name": "_merkleTreeRoot",
          "type": "uint256"
        },
        {
          "internalType": "uint256",
          "name": "_signal",
          "type": "uint256"
        },
        {
          "internalType": "uint256",
          "name": "_nullifierHash",
          "type": "uint256"
        },
        {
          "internalType": "uint256",
          "name": "_merkleTreeDepth",
          "type": "uint256"
        },
        {
          "internalType": "uint256[2]",
          "name": "_pA",
          "type": "uint256[2]"
        },
        {
          "internalType": "uint256[2][2]",
          "name": "_pB",
          "type": "uint256[2][2]"
        },
        {
          "internalType": "uint256[2]",
          "name": "_pC",
          "type": "uint256[2]"
        }
      ],
      "name": "verifyProof",
      "outputs": [],
      "stateMutability": "nonpayable",
      "type": "function"
    }
  ],
  "bytecode": "0x60c060405234801561001057600080fd5b5060405161106938038061106983398101604081905261002f91610067565b6001600160a01b039182166080521660a052600160035561009a565b80516001600160a01b038116811461006257600080fd5b919050565b6000806040838503121561007a57600080fd5b6100838361004b565b91506100916020840161004b565b90509250929050565b60805160a051610f9d6100cc6000396000818161016001526105fa01526000818160f4015261036c0152610f9d6000f3fe608060405234801561001057600080fd5b50600436106100ea5760003560e01c80638f89921a1161008c578063aad2406111610066578063aad2406114610218578063c6c0572d1461023b578063c6f6a7491461025e578063dc2ddcae1461028c57600080fd5b80638f89921a146101bf57806396324bd4146101e257806399d4360f1461020557600080fd5b806329a6dfbb116100c857806329a6dfbb1461015b5780635bb6e6e7146101825780635eda7a7614610195578063645c6eeb146101ac57600080fd5b80630ef53a15146100ef57806316812856146101335780631ecdb2c414610148575b600080fd5b6101167f000000000000000000000000000000000000000000000000000000000000000081565b6040516001600160a01b0390911681526020015b60405180910390f35b610146610141366004610acf565b61029f565b005b610146610156366004610b4d565b6104bb565b6101167f000000000000000000000000000000000000000000000000000000000000000081565b610146610190366004610b66565b61050f565b61019e60035481565b60405190815260200161012a565b6101466101ba366004610b66565b6106f8565b6101d26101cd366004610b66565b6107fa565b604051901515815260200161012a565b6101f56101f0366004610b4d565b61081e565b60405161012a9493929190610bce565b6101f5610213366004610b4d565b6108de565b6101d2610226366004610b4d565b60006020819052908152604090205460ff1681565b6101d2610249366004610b4d565b60009081526020819052604090205460ff1690565b6101d261026c366004610b66565b600260209081526000928352604080842090915290825290205460ff1681565b61019e61029a366004610c20565b6109e2565b600088815260016020526040902060030154889060ff166102db5760405162461bcd60e51b81526004016102d290610cd1565b60405180910390fd5b600086815260208190526040902054869060ff16156103355760405162461bcd60e51b8152602060048201526016602482015275139d5b1b1a599a595c88185b1c9958591e481d5cd95960521b60448201526064016102d2565b604080516080810182528a8152602081018990528082018a9052606081018c9052905163a23f019960e01b81526001600160a01b037f0000000000000000000000000000000000000000000000000000000000000000169063a23f0199906103a99089908990899087908e90600401610cfb565b602060405180830381865afa1580156103c6573d6000803e3d6000fd5b505050506040513d601f19601f820116820180604052508101906103ea9190610d71565b6104265760405162461bcd60e51b815260206004820152600d60248201526c24b73b30b634b210383937b7b360991b60448201526064016102d2565b600088815260208190526040808220805460ff19166001179055518c918a917f62505b41077126f1df41722ee7dad1c3b7f85a3f8fd415200ddae332830040049190a3604080518b8152602081018a90529081018a905233908c907f0b8d94f32b2dcbe8107294cac7c22eb58d63d72996fad51de316609aadd1849e9060600160405180910390a35050505050505050505050565b60008181526001602052604090205481906001600160a01b031633146104f35760405162461bcd60e51b81526004016102d290610d9a565b506000908152600160205260409020600301805460ff19169055565b60008281526001602052604090205482906001600160a01b031633146105475760405162461bcd60e51b81526004016102d290610d9a565b600083815260016020526040902060030154839060ff1661057a5760405162461bcd60e51b81526004016102d290610cd1565b600084815260026020908152604080832086845290915290205460ff16156105e45760405162461bcd60e51b815260206004820152601760248201527f4d656d62657220616c726561647920696e2067726f757000000000000000000060448201526064016102d2565b60405163588a929760e01b8152600481018490527f00000000000000000000000000000000000000000000000000000000000000006001600160a01b03169063588a929790602401602060405180830381865afa158015610649573d6000803e3d6000fd5b505050506040513d601f19601f8201168201806040525081019061066d9190610d71565b6106b15760405162461bcd60e51b81526020600482015260156024820152741259195b9d1a5d1e481b9bdd081d995c9a599a5959605a1b60448201526064016102d2565b60008481526002602081815260408084208785528252808420805460ff191660019081179091558885529091528220018054916106ed83610dd9565b919050555050505050565b60008281526001602052604090205482906001600160a01b031633146107305760405162461bcd60e51b81526004016102d290610d9a565b600083815260016020526040902060030154839060ff166107635760405162461bcd60e51b81526004016102d290610cd1565b600084815260026020908152604080832086845290915290205460ff166107c25760405162461bcd60e51b815260206004820152601360248201527204d656d626572206e6f7420696e2067726f757606c1b60448201526064016102d2565b60008481526002602081815260408084208785528252808420805460ff1916905587845260019091528220018054916106ed83610df2565b600082815260026020908152604080832084845290915290205460ff165b92915050565b6001602081905260009182526040909120805491810180546001600160a01b039093169261084b90610e09565b80601f016020809104026020016040519081016040528092919081815260200182805461087790610e09565b80156108c45780601f10610899576101008083540402835291602001916108c4565b820191906000526020600020905b8154815290600101906020018083116108a757829003601f168201915b50505050600283015460039093015491929160ff16905084565b600081815260016020818152604080842081516080810190925280546001600160a01b03168252928301805460609486948594859490939184019161092290610e09565b80601f016020809104026020016040519081016040528092919081815260200182805461094e90610e09565b801561099b5780601f106109705761010080835404028352916020019161099b565b820191906000526020600020905b81548152906001019060200180831161097e57829003601f168201915b5050509183525050600282015460208083019190915260039092015460ff161515604091820152825191830151908301516060909301519199909850919650945092505050565b60038054600091826109f383610dd9565b9091555060408051608081018252338152602080820186815260008385018190526001606085018190528682529283905293909320825181546001600160a01b0319166001600160a01b039091161781559251939450909290820190610a599082610e94565b5060408281015160028301556060909201516003909101805460ff191691151591909117905551339082907f4354295f5d98820e66a770bd58cf23606ab255dd9dc2daf870fab38ecbc3e7e090610ab1908690610f54565b60405180910390a3919050565b806040810183101561081857600080fd5b6000806000806000806000806101a0898b031215610aec57600080fd5b8835975060208901359650604089013595506060890135945060808901359350610b198a60a08b01610abe565b925061016089018a811115610b2d57600080fd5b60e08a019250610b3d8b82610abe565b9150509295985092959890939650565b600060208284031215610b5f57600080fd5b5035919050565b60008060408385031215610b7957600080fd5b50508035926020909101359150565b6000815180845260005b81811015610bae57602081850181015186830182015201610b92565b506000602082860101526020601f19601f83011685010191505092915050565b6001600160a01b0385168152608060208201819052600090610bf290830186610b88565b60408301949094525090151560609091015292915050565b634e487b7160e01b600052604160045260246000fd5b600060208284031215610c3257600080fd5b813567ffffffffffffffff80821115610c4a57600080fd5b818401915084601f830112610c5e57600080fd5b813581811115610c7057610c70610c0a565b604051601f8201601f19908116603f01168101908382118183101715610c9857610c98610c0a565b81604052828152876020848701011115610cb157600080fd5b826020860160208301376000928101602001929092525095945050505050565b60208082526010908201526f47726f7570206e6f742061637469766560801b604082015260600190565b6101a081016040808884378083018760005b6002811015610d2a57838284379183019190830190600101610d0d565b505050808660c08501375061010082018460005b6004811015610d5d578151835260209283019290910190600101610d3e565b505050826101808301529695505050505050565b600060208284031215610d8357600080fd5b81518015158114610d9357600080fd5b9392505050565b6020808252600f908201526e2737ba1033b937bab81030b236b4b760891b604082015260600190565b634e487b7160e01b600052601160045260246000fd5b600060018201610deb57610deb610dc3565b5060010190565b600081610e0157610e01610dc3565b506000190190565b600181811c90821680610e1d57607f821691505b602082108103610e3d57634e487b7160e01b600052602260045260246000fd5b50919050565b601f821115610e8f576000816000526020600020601f850160051c81016020861015610e6c5750805b601f850160051c820191505b81811015610e8b57828155600101610e78565b5050505b505050565b815167ffffffffffffffff811115610eae57610eae610c0a565b610ec281610ebc8454610e09565b84610e43565b602080601f831160018114610ef75760008415610edf5750858301515b600019600386901b1c1916600185901b178555610e8b565b600085815260208120601f198616915b82811015610f2657888601518255948401946001909101908401610f07565b5085821015610f445787850151600019600388901b60f8161c191681555b5050505050600190811b01905550565b602081526000610d936020830184610b8856fea2646970667358221220781d985fa1c518ab12350c0a92d9856040493ec0a438536e363b21d5ee28eba864736f6c63430008170033",
  "linkReferences": {},
  "deployedLinkReferences": {}
}