{
  "_format": "hh-sol-artifact-1",
  "contractName": "EEGGroup",
  "sourceName": "contracts/EEGGroup.sol",
  "abi": [
    {
      "inputs": [
        {
          "internalType": "address",
          "name": "_eegRegistry",
          "type": "address"
        }
      ],
      "stateMutability": "nonpayable",
      "type": "constructor"
    },
    {
      "anonymous": false,
      "inputs": [
        {
          "indexed": true,
          "internalType": "uint256",
          "name": "groupId",
          "type": "uint256"
        },
        {
          "indexed": true,
          "internalType": "address",
          "name": "newAdmin",
          "type": "address"
        },
        {
          "indexed": true,
          "internalType": "address",
          "name": "addedBy",
          "type": "address"
        }
      ],
      "name": "AdminAdded",
      "type": "event"
    },
    {
      "anonymous": false,
      "inputs": [
        {
          "indexed": true,
          "internalType": "uint256",
          "name": "groupId",
          "type": "uint256"
        },
        {
          "indexed": true,
          "internalType": "address",
          "name": "removedAdmin",
          "type": "address"
        },
        {
          "indexed": true,
          "internalType": "address",
          "name": "removedBy",
          "type": "address"
        }
      ],
      "name": "AdminRemoved",
      "type": "event"
    },
    {
      "anonymous": false,
      "inputs": [
        {
          "indexed": true,
          "internalType": "uint256",
          "name": "groupId",
          "type": "uint256"
        },
        {
          "indexed": true,
          "internalType": "address",
          "name": "creator",
          "type": "address"
        },
        {
          "indexed": false,
          "internalType": "string",
          "name": "name",
          "type": "string"
        }
      ],
      "name": "GroupCreated",
      "type": "event"
    },
    {
      "anonymous": false,
      "inputs": [
        {
          "indexed": true,
          "internalType": "uint256",
          "name": "groupId",
          "type": "uint256"
        },
        {
          "indexed": false,
          "internalType": "string",
          "name": "name",
          "type": "string"
        },
        {
          "indexed": false,
          "internalType": "string",
          "name": "description",
          "type": "string"
        }
      ],
      "name": "GroupUpdated",
      "type": "event"
    },
    {
      "anonymous": false,
      "inputs": [
        {
          "indexed": true,
          "internalType": "uint256",
          "name": "groupId",
          "type": "uint256"
        },
        {
          "indexed": true,
          "internalType": "uint256",
          "name": "identityCommitment",
          "type": "uint256"
        }
      ],
      "name": "MemberAdded",
      "type": "event"
    },
    {
      "anonymous": false,
      "inputs": [
        {
          "indexed": true,
          "internalType": "uint256",
          "name": "groupId",
          "type": "uint256"
        },
        {
          "indexed": true,
          "internalType": "uint256",
          "name": "identityCommitment",
          "type": "uint256"
        }
      ],
      "name": "MemberRemoved",
      "type": "event"
    },
    {
      "inputs": [
        {
          "internalType": "uint256",
          "name": "_groupId",
          "type": "uint256"
        },
        {
          "internalType": "address",
          "name": "_newAdmin",
          "type": "address"
        }
      ],
      "name": "addAdmin",
      "outputs": [],
      "stateMutability": "nonpayable",
      "type": "function"
    },
    {
      "inputs": [
        {
          "internalType": "uint256",
          "name": "_groupId",
          "type": "uint256"
        },
        {
          "internalType": "uint256",
          "name": "_identityCommitment",
          "type": "uint256"
        }
      ],
      "name": "addMember",
      "outputs": [],
      "stateMutability": "nonpayable",
      "type": "function"
    },
    {
      "inputs": [
        {
          "internalType": "string",
          "name": "_name",
          "type": "string"
        },
        {
          "internalType": "string",
          "name": "_description",
          "type": "string"
        },
        {
          "internalType": "enum EEGGroup.GroupType",
          "name": "_groupType",
          "type": "uint8"
        },
        {
          "internalType": "uint256",
          "name": "_maxMembers",
          "type": "uint256"
        }
      ],
      "name": "createGroup",
      "outputs": [
        {
          "internalType": "uint256",
          "name": "groupId",
          "type": "uint256"
        }
      ],
      "stateMutability": "nonpayable",
      "type": "function"
    },
    {
      "inputs": [
        {
          "internalType": "uint256",
          "name": "_groupId",
          "type": "uint256"
        }
      ],
      "name": "deactivateGroup",
      "outputs": [],
      "stateMutability": "nonpayable",
      "type": "function"
    },
    {
      "inputs": [],
      "name": "eegRegistry",
      "outputs": [
        {
          "internalType": "contract EEGRegistry",
          "name": "",
          "type": "address"
        }
      ],
      "stateMutability": "view",
      "type": "function"
    },
    {
      "inputs": [
        {
          "internalType": "uint256",
          "name": "_groupId",
          "type": "uint256"
        }
      ],
      "name": "getGroup",
      "outputs": [
        {
          "components": [
            {
              "internalType": "string",
              "name": "name",
              "type": "string"
            },
            {
              "internalType": "string",
              "name": "description",
              "type": "string"
            },
            {
              "internalType": "address",
              "name": "creator",
              "type": "address"
            },
            {
              "internalType": "enum EEGGroup.GroupType",
              "name": "groupType",
              "type": "uint8"
            },
            {
              "internalType": "uint256",
              "name": "memberCount",
              "type": "uint256"
            },
            {
              "internalType": "uint256",
              "name": "maxMembers",
              "type": "uint256"
            },
            {
              "internalType": "bool",
              "name": "active",
              "type": "bool"
            },
            {
              "internalType": "uint256",
              "name": "createdAt",
              "type": "uint256"
            }
          ],
          "internalType": "struct EEGGroup.Group",
          "name": "",
          "type": "tuple"
        }
      ],
      "stateMutability": "view",
      "type": "function"
    },
    {
      "inputs": [
        {
          "internalType": "uint256",
          "name": "_groupId",
          "type": "uint256"
        }
      ],
      "name": "getGroupMembers",
      "outputs": [
        {
          "internalType": "uint256[]",
          "name": "",
          "type": "uint256[]"
        }
      ],
      "stateMutability": "view",
      "type": "function"
    },
    {
      "inputs": [
        {
          "internalType": "address",
          "name": "_user",
          "type": "address"
        }
      ],
      "name": "getUserGroups",
      "outputs": [
        {
          "internalType": "uint256[]",
          "name": "",
          "type": "uint256[]"
        }
      ],
      "stateMutability": "view",
      "type": "function"
    },
    {
      "inputs": [
        {
          "internalType": "uint256",
          "name": "",
          "type": "uint256"
        },
        {
          "internalType": "address",
          "name": "",
          "type": "address"
        }
      ],
      "name": "groupAdmins",
      "outputs": [
        {
          "internalType": "bool",
          "name": "",
          "type": "bool"
        }
      ],
      "stateMutability": "view",
      "type": "function"
    },
    {
      "inputs": [
        {
          "internalType": "uint256",
          "name": "",
          "type": "uint256"
        },
        {
          "internalType": "uint256",
          "name": "",
          "type": "uint256"
        }
      ],
      "name": "groupMembers",
      "outputs": [
        {
          "internalType": "bool",
          "name": "",
          "type": "bool"
        }
      ],
      "stateMutability": "view",
      "type": "function"
    },
    {
      "inputs": [
        {
          "internalType": "uint256",
          "name": "",
          "type": "uint256"
        },
        {
          "internalType": "uint256",
          "name": "",
          "type": "uint256"
        }
      ],
      "name": "groupMembersList",
      "outputs": [
        {
          "internalType": "uint256",
          "name": "",
          "type": "uint256"
        }
      ],
      "stateMutability": "view",
      "type": "function"
    },
    {
      "inputs": [
        {
          "internalType": "uint256",
          "name": "",
          "type": "uint256"
        }
      ],
      "name": "groups",
      "outputs": [
        {
          "internalType": "string",
          "name": "name",
          "type": "string"
        },
        {
          "internalType": "string",
          "name": "description",
          "type": "string"
        },
        {
          "internalType": "address",
          "name": "creator",
          "type": "address"
        },
        {
          "internalType": "enum EEGGroup.GroupType",
          "name": "groupType",
          "type": "uint8"
        },
        {
          "internalType": "uint256",
          "name": "memberCount",
          "type": "uint256"
        },
        {
          "internalType": "uint256",
          "name": "maxMembers",
          "type": "uint256"
        },
        {
          "internalType": "bool",
          "name": "active",
          "type": "bool"
        },
        {
          "internalType": "uint256",
          "name": "createdAt",
          "type": "uint256"
        }
      ],
      "stateMutability": "view",
      "type": "function"
    },
    {
      "inputs": [
        {
          "internalType": "uint256",
          "name": "_groupId",
          "type": "uint256"
        },
        {
          "internalType": "address",
          "name": "_user",
          "type": "address"
        }
      ],
      "name": "isAdmin",
      "outputs": [
        {
          "internalType": "bool",
          "name": "",
          "type": "bool"
        }
      ],
      "stateMutability": "view",
      "type": "function"
    },
    {
      "inputs": [
        {
          "internalType": "uint256",
          "name": "_groupId",
          "type": "uint256"
        },
        {
          "internalType": "uint256",
          "name": "_identityCommitment",
          "type": "uint256"
        }
      ],
      "name": "isMember",
      "outputs": [
        {
          "internalType": "bool",
          "name": "",
          "type": "bool"
        }
      ],
      "stateMutability": "view",
      "type": "function"
    },
    {
      "inputs": [
        {
          "internalType": "uint256",
          "name": "_groupId",
          "type": "uint256"
        }
      ],
      "name": "joinGroup",
      "outputs": [],
      "stateMutability": "nonpayable",
      "type": "function"
    },
    {
      "inputs": [
        {
          "internalType": "uint256",
          "name": "_groupId",
          "type": "uint256"
        }
      ],
      "name": "leaveGroup",
      "outputs": [],
      "stateMutability": "nonpayable",
      "type": "function"
    },
    {
      "inputs": [],
      "name": "nextGroupId",
      "outputs": [
        {
          "internalType": "uint256",
          "name": "",
          "type": "uint256"
        }
      ],
      "stateMutability": "view",
      "type": "function"
    },
    {
      "inputs": [
        {
          "internalType": "uint256",
          "name": "_groupId",
          "type": "uint256"
        },
        {
          "internalType": "address",
          "name": "_admin",
          "type": "address"
        }
      ],
      "name": "removeAdmin",
      "outputs": [],
      "stateMutability": "nonpayable",
      "type": "function"
    },
    {
      "inputs": [
        {
          "internalType": "uint256",
          "name": "_groupId",
          "type": "uint256"
        },
        {
          "internalType": "uint256",
          "name": "_identityCommitment",
          "type": "uint256"
        }
      ],
      "name": "removeMember",
      "outputs": [],
      "stateMutability": "nonpayable",
      "type": "function"
    },
    {
      "inputs": [],
      "name": "totalGroups",
      "outputs": [
        {
          "internalType": "uint256",
          "name": "",
          "type": "uint256"
        }
      ],
      "stateMutability": "view",
      "type": "function"
    },
    {
      "inputs": [
        {
          "internalType": "uint256",
          "name": "_groupId",
          "type": "uint256"
        },
        {
          "internalType": "string",
          "name": "_name",
          "type": "string"
        },
        {
          "internalType": "string",
          "name": "_description",
          "type": "string"
        }
      ],
      "name": "updateGroup",
      "outputs": [],
      "stateMutability": "nonpayable",
      "type": "function"
    },
    {
      "inputs": [
        {
          "internalType": "address",
          "name": "",
          "type": "address"
        },
        {
          "internalType": "uint256",
          "name": "",
          "type": "uint256"
        }
      ],
      "name": "userGroups",
      "outputs": [
        {
          "internalType": "uint256",
          "name": "",
          "type": "uint256"
        }
      ],
      "stateMutability": "view",
      "type": "function"
    }
  ],
  "bytecode": "0x60a06040523480156200001157600080fd5b50604051620027113803806200271183398101604081905262000034916200004b565b6001600160a01b031660805260016005556200007d565b6000602082840312156200005e57600080fd5b81516001600160a01b03811681146200007657600080fd5b9392505050565b60805161262b620000e66000396000818161019c01528181610515015281816106760152818161087601528181610b5401528181610bfb01528181610c870152818161177e015281816119de01528181611a8501528181611b110152611c69015261262b6000f3fe608060405234801561001057600080fd5b50600436106101425760003560e01c806360a9e097116100b8578063c75f28931161007c578063c75f289314610315578063ceb606541461031e578063dbdc814b1461033e578063e7f549e514610351578063eb3e4ae51461037f578063eed02e4b1461039257600080fd5b806360a9e097146102875780637eb0bdc91461029a57806396324bd4146102ad5780639f338cd2146102d4578063c6f6a749146102e757600080fd5b806336cc81301161010a57806336cc8130146101e95780633da04e4a1461020957806340f354811461021c5780634451f1141461023d5780635cb2384c1461026b5780635eda7a761461027e57600080fd5b8063146a2911146101475780631783efc31461016f5780631ecdb2c41461018457806329a6dfbb1461019757806333471df5146101d6575b600080fd5b61015a610155366004611ec4565b6103a5565b60405190151581526020015b60405180910390f35b61018261017d366004611ef4565b6103fb565b005b610182610192366004611f16565b61075b565b6101be7f000000000000000000000000000000000000000000000000000000000000000081565b6040516001600160a01b039091168152602001610166565b6101826101e4366004611f16565b61081f565b6101fc6101f7366004611f16565b610a70565b6040516101669190611f2f565b6101fc610217366004611f73565b610ad2565b61022f61022a36600461203a565b610b3c565b604051908152602001610166565b61015a61024b366004611ef4565b600091825260026020908152604080842092845291905290205460ff1690565b610182610279366004611ef4565b610f13565b61022f60055481565b61022f6102953660046120bc565b611136565b6101826102a8366004611ec4565b611167565b6102c06102bb366004611f16565b61131a565b604051610166989796959493929190612166565b61022f6102e2366004611ef4565b61147e565b61015a6102f5366004611ef4565b600260209081526000928352604080842090915290825290205460ff1681565b61022f60065481565b61033161032c366004611f16565b61149a565b60405161016691906121d4565b61018261034c366004611ec4565b61165b565b61015a61035f366004611ec4565b600160209081526000928352604080842090915290825290205460ff1681565b61018261038d366004612273565b611864565b6101826103a0366004611f16565b6119c9565b60008281526001602090815260408083206001600160a01b038516845290915281205460ff16806103f257506000838152602081905260409020600201546001600160a01b038381169116145b90505b92915050565b6000828152600160209081526040808320338452909152902054829060ff168061043e57506000818152602081905260409020600201546001600160a01b031633145b6104635760405162461bcd60e51b815260040161045a906122e0565b60405180910390fd5b8260055481108015610486575060008181526020819052604090206005015460ff165b6104a25760405162461bcd60e51b815260040161045a90612309565b600084815260026020908152604080832086845290915290205460ff16156104ff5760405162461bcd60e51b815260206004820152601060248201526f20b63932b0b23c90309036b2b6b132b960811b604482015260640161045a565b60405163588a929760e01b8152600481018490527f00000000000000000000000000000000000000000000000000000000000000006001600160a01b03169063588a929790602401602060405180830381865afa158015610564573d6000803e3d6000fd5b505050506040513d601f19601f820116820180604052508101906105889190612330565b6105a45760405162461bcd60e51b815260040161045a90612352565b6000848152602081905260409020600481015415806105ca575080600401548160030154105b6106065760405162461bcd60e51b815260206004820152600d60248201526c11dc9bdd5c081a5cc8199d5b1b609a1b604482015260640161045a565b60008581526002602090815260408083208784528252808320805460ff191660019081179091558884526003808452918420805491820181558452918320909101869055820180549161065883612397565b9091555050604051631545b62560e31b8152600481018590526000907f00000000000000000000000000000000000000000000000000000000000000006001600160a01b03169063aa2db12890602401602060405180830381865afa1580156106c5573d6000803e3d6000fd5b505050506040513d601f19601f820116820180604052508101906106e991906123b0565b90506001600160a01b03811615610726576001600160a01b0381166000908152600460209081526040822080546001810182559083529120018690555b604051859087907fa7971101f3ab1808fedaf53dcda952637961dcc1153334a243c3426fc83c859490600090a3505050505050565b806005548110801561077e575060008181526020819052604090206005015460ff165b61079a5760405162461bcd60e51b815260040161045a90612309565b6000828152602081905260409020600201546001600160a01b031633146108035760405162461bcd60e51b815260206004820152601b60248201527f4f6e6c792063726561746f722063616e20646561637469766174650000000000604482015260640161045a565b506000908152602081905260409020600501805460ff19169055565b8060055481108015610842575060008181526020819052604090206005015460ff165b61085e5760405162461bcd60e51b815260040161045a90612309565b60405163415d6a0160e01b81523360048201526000907f00000000000000000000000000000000000000000000000000000000000000006001600160a01b03169063415d6a0190602401602060405180830381865afa1580156108c5573d6000803e3d6000fd5b505050506040513d601f19601f820116820180604052508101906108e991906123cd565b600084815260026020908152604080832084845290915290205490915060ff166109445760405162461bcd60e51b815260206004820152600c60248201526b2737ba10309036b2b6b132b960a11b604482015260640161045a565b60008381526002602090815260408083208484528252808320805460ff1916905585835290829052812060030180549161097d836123e6565b90915550506000838152600360205260408120905b8154811015610a3c57828282815481106109ae576109ae6123fd565b906000526020600020015403610a3457815482906109ce90600190612413565b815481106109de576109de6123fd565b90600052602060002001548282815481106109fb576109fb6123fd565b906000526020600020018190555081805480610a1957610a19612426565b60019003818190600052602060002001600090559055610a3c565b600101610992565b50604051829085907ff75290a2e96cc6159e4aa725868d3ee344d7e302fddea73704110e6840e5a4ef90600090a350505050565b600081815260036020908152604091829020805483518184028101840190945280845260609392830182828015610ac657602002820191906000526020600020905b815481526020019060010190808311610ab2575b50505050509050919050565b6001600160a01b038116600090815260046020908152604091829020805483518184028101840190945280845260609392830182828015610ac65760200282019190600052602060002090815481526020019060010190808311610ab25750505050509050919050565b604051630b1fba9160e11b81523360048201526000907f00000000000000000000000000000000000000000000000000000000000000006001600160a01b03169063163f752290602401602060405180830381865afa158015610ba3573d6000803e3d6000fd5b505050506040513d601f19601f82011682018060405250810190610bc79190612330565b610be35760405162461bcd60e51b815260040161045a9061243c565b60405163415d6a0160e01b81523360048201526000907f00000000000000000000000000000000000000000000000000000000000000006001600160a01b03169063415d6a0190602401602060405180830381865afa158015610c4a573d6000803e3d6000fd5b505050506040513d601f19601f82011682018060405250810190610c6e91906123cd565b60405163588a929760e01b8152600481018290529091507f00000000000000000000000000000000000000000000000000000000000000006001600160a01b03169063588a929790602401602060405180830381865afa158015610cd6573d6000803e3d6000fd5b505050506040513d601f19601f82011682018060405250810190610cfa9190612330565b610d165760405162461bcd60e51b815260040161045a90612352565b6000865111610d675760405162461bcd60e51b815260206004820152601a60248201527f47726f7570206e616d652063616e6e6f7420626520656d707479000000000000604482015260640161045a565b60058054906000610d7783612397565b919050559150604051806101000160405280878152602001868152602001336001600160a01b03168152602001856002811115610db657610db661212e565b815260006020808301829052604080840188905260016060850152426080909401939093528582528190522081518190610df090826124f4565b5060208201516001820190610e0590826124f4565b506040820151600280830180546001600160a01b039093166001600160a01b031984168117825560608601519391926001600160a81b03199092161790600160a01b908490811115610e5957610e5961212e565b02179055506080820151600382015560a0820151600482015560c082015160058201805491151560ff1992831617905560e09092015160069182015560008481526001602081815260408084203385529091528220805490941617909255805491610ec383612397565b9190505550336001600160a01b0316827f4354295f5d98820e66a770bd58cf23606ab255dd9dc2daf870fab38ecbc3e7e088604051610f0291906125b4565b60405180910390a350949350505050565b6000828152600160209081526040808320338452909152902054829060ff1680610f5657506000818152602081905260409020600201546001600160a01b031633145b610f725760405162461bcd60e51b815260040161045a906122e0565b8260055481108015610f95575060008181526020819052604090206005015460ff165b610fb15760405162461bcd60e51b815260040161045a90612309565b600084815260026020908152604080832086845290915290205460ff166110095760405162461bcd60e51b815260206004820152600c60248201526b2737ba10309036b2b6b132b960a11b604482015260640161045a565b60008481526002602090815260408083208684528252808320805460ff19169055868352908290528120600301805491611042836123e6565b90915550506000848152600360205260408120905b81548110156111015784828281548110611073576110736123fd565b9060005260206000200154036110f9578154829061109390600190612413565b815481106110a3576110a36123fd565b90600052602060002001548282815481106110c0576110c06123fd565b9060005260206000200181905550818054806110de576110de612426565b60019003818190600052602060002001600090559055611101565b600101611057565b50604051849086907ff75290a2e96cc6159e4aa725868d3ee344d7e302fddea73704110e6840e5a4ef90600090a35050505050565b6004602052816000526040600020818154811061115257600080fd5b90600052602060002001600091509150505481565b816005548110801561118a575060008181526020819052604090206005015460ff165b6111a65760405162461bcd60e51b815260040161045a90612309565b6000838152602081905260409020600201546001600160a01b0316331461120f5760405162461bcd60e51b815260206004820152601e60248201527f4f6e6c792063726561746f722063616e2072656d6f76652061646d696e730000604482015260640161045a565b60008381526001602090815260408083206001600160a01b038616845290915290205460ff166112705760405162461bcd60e51b815260206004820152600c60248201526b2737ba1030b71030b236b4b760a11b604482015260640161045a565b336001600160a01b038316036112c15760405162461bcd60e51b815260206004820152601660248201527521b0b73737ba103932b6b7bb32903cb7bab939b2b63360511b604482015260640161045a565b60008381526001602090815260408083206001600160a01b0386168085529252808320805460ff1916905551339286917f2e90af088aafd67a5ed68b3fdb17595cf0c7d12ff93f130ab264d8dd392d4c4c9190a4505050565b60006020819052908152604090208054819061133590612469565b80601f016020809104026020016040519081016040528092919081815260200182805461136190612469565b80156113ae5780601f10611383576101008083540402835291602001916113ae565b820191906000526020600020905b81548152906001019060200180831161139157829003601f168201915b5050505050908060010180546113c390612469565b80601f01602080910402602001604051908101604052809291908181526020018280546113ef90612469565b801561143c5780601f106114115761010080835404028352916020019161143c565b820191906000526020600020905b81548152906001019060200180831161141f57829003601f168201915b505050600284015460038501546004860154600587015460069097015495966001600160a01b0384169660ff600160a01b909504851696509294509092169088565b6003602052816000526040600020818154811061115257600080fd5b6114a2611e4b565b60008281526020819052604090819020815161010081019092528054829082906114cb90612469565b80601f01602080910402602001604051908101604052809291908181526020018280546114f790612469565b80156115445780601f1061151957610100808354040283529160200191611544565b820191906000526020600020905b81548152906001019060200180831161152757829003601f168201915b5050505050815260200160018201805461155d90612469565b80601f016020809104026020016040519081016040528092919081815260200182805461158990612469565b80156115d65780601f106115ab576101008083540402835291602001916115d6565b820191906000526020600020905b8154815290600101906020018083116115b957829003601f168201915b50505091835250506002828101546001600160a01b0381166020840152604090920191600160a01b900460ff16908111156116135761161361212e565b60028111156116245761162461212e565b81526003820154602082015260048201546040820152600582015460ff161515606082015260069091015460809091015292915050565b6000828152600160209081526040808320338452909152902054829060ff168061169e57506000818152602081905260409020600201546001600160a01b031633145b6116ba5760405162461bcd60e51b815260040161045a906122e0565b82600554811080156116dd575060008181526020819052604090206005015460ff165b6116f95760405162461bcd60e51b815260040161045a90612309565b60008481526001602090815260408083206001600160a01b038716845290915290205460ff161561175f5760405162461bcd60e51b815260206004820152601060248201526f20b63932b0b23c9030b71030b236b4b760811b604482015260640161045a565b604051630b1fba9160e11b81526001600160a01b0384811660048301527f0000000000000000000000000000000000000000000000000000000000000000169063163f752290602401602060405180830381865afa1580156117c5573d6000803e3d6000fd5b505050506040513d601f19601f820116820180604052508101906117e99190612330565b6118055760405162461bcd60e51b815260040161045a9061243c565b60008481526001602081815260408084206001600160a01b0388168086529252808420805460ff19169093179092559051339287917f8fc88d510894815f0f91e5256a040caf7aed6d1b68207a1b064ebd93c534ac119190a450505050565b6000838152600160209081526040808320338452909152902054839060ff16806118a757506000818152602081905260409020600201546001600160a01b031633145b6118c35760405162461bcd60e51b815260040161045a906122e0565b83600554811080156118e6575060008181526020819052604090206005015460ff165b6119025760405162461bcd60e51b815260040161045a90612309565b60008451116119535760405162461bcd60e51b815260206004820152601a60248201527f47726f7570206e616d652063616e6e6f7420626520656d707479000000000000604482015260640161045a565b600085815260208190526040902061196b85826124f4565b50600085815260208190526040902060010161198784826124f4565b50847fcb9c21f4ffc720068a2afb8fb43cc2e7ec19801b9940c57754f469221900363c85856040516119ba9291906125c7565b60405180910390a25050505050565b604051630b1fba9160e11b81523360048201527f00000000000000000000000000000000000000000000000000000000000000006001600160a01b03169063163f752290602401602060405180830381865afa158015611a2d573d6000803e3d6000fd5b505050506040513d601f19601f82011682018060405250810190611a519190612330565b611a6d5760405162461bcd60e51b815260040161045a9061243c565b60405163415d6a0160e01b81523360048201526000907f00000000000000000000000000000000000000000000000000000000000000006001600160a01b03169063415d6a0190602401602060405180830381865afa158015611ad4573d6000803e3d6000fd5b505050506040513d601f19601f82011682018060405250810190611af891906123cd565b60405163588a929760e01b8152600481018290529091507f00000000000000000000000000000000000000000000000000000000000000006001600160a01b03169063588a929790602401602060405180830381865afa158015611b60573d6000803e3d6000fd5b505050506040513d601f19601f82011682018060405250810190611b849190612330565b611ba05760405162461bcd60e51b815260040161045a90612352565b8160055481108015611bc3575060008181526020819052604090206005015460ff165b611bdf5760405162461bcd60e51b815260040161045a90612309565b600080848152602081905260409020600290810154600160a01b900460ff1690811115611c0e57611c0e61212e565b14611c515760405162461bcd60e51b815260206004820152601360248201527247726f7570206973206e6f74207075626c696360681b604482015260640161045a565b60405163415d6a0160e01b81523360048201526000907f00000000000000000000000000000000000000000000000000000000000000006001600160a01b03169063415d6a0190602401602060405180830381865afa158015611cb8573d6000803e3d6000fd5b505050506040513d601f19601f82011682018060405250810190611cdc91906123cd565b600085815260026020908152604080832084845290915290205490915060ff1615611d3c5760405162461bcd60e51b815260206004820152601060248201526f20b63932b0b23c90309036b2b6b132b960811b604482015260640161045a565b600084815260208190526040902060048101541580611d62575080600401548160030154105b611d9e5760405162461bcd60e51b815260206004820152600d60248201526c11dc9bdd5c081a5cc8199d5b1b609a1b604482015260640161045a565b60008581526002602090815260408083208584528252808320805460ff1916600190811790915588845260038084529184208054918201815584529183209091018490558201805491611df083612397565b9091555050336000908152600460209081526040808320805460018101825590845291832090910187905551839187917fa7971101f3ab1808fedaf53dcda952637961dcc1153334a243c3426fc83c85949190a35050505050565b604051806101000160405280606081526020016060815260200160006001600160a01b0316815260200160006002811115611e8857611e8861212e565b81526020016000815260200160008152602001600015158152602001600081525090565b6001600160a01b0381168114611ec157600080fd5b50565b60008060408385031215611ed757600080fd5b823591506020830135611ee981611eac565b809150509250929050565b60008060408385031215611f0757600080fd5b50508035926020909101359150565b600060208284031215611f2857600080fd5b5035919050565b6020808252825182820181905260009190848201906040850190845b81811015611f6757835183529284019291840191600101611f4b565b50909695505050505050565b600060208284031215611f8557600080fd5b8135611f9081611eac565b9392505050565b634e487b7160e01b600052604160045260246000fd5b600082601f830112611fbe57600080fd5b813567ffffffffffffffff80821115611fd957611fd9611f97565b604051601f8301601f19908116603f0116810190828211818310171561200157612001611f97565b8160405283815286602085880101111561201a57600080fd5b836020870160208301376000602085830101528094505050505092915050565b6000806000806080858703121561205057600080fd5b843567ffffffffffffffff8082111561206857600080fd5b61207488838901611fad565b9550602087013591508082111561208a57600080fd5b5061209787828801611fad565b9350506040850135600381106120ac57600080fd5b9396929550929360600135925050565b600080604083850312156120cf57600080fd5b82356120da81611eac565b946020939093013593505050565b6000815180845260005b8181101561210e576020818501810151868301820152016120f2565b506000602082860101526020601f19601f83011685010191505092915050565b634e487b7160e01b600052602160045260246000fd5b6003811061216257634e487b7160e01b600052602160045260246000fd5b9052565b600061010080835261217a8184018c6120e8565b9050828103602084015261218e818b6120e8565b6001600160a01b038a16604085015291506121ae90506060830188612144565b608082019590955260a081019390935290151560c083015260e090910152949350505050565b60208152600082516101008060208501526121f36101208501836120e8565b91506020850151601f1985840301604086015261221083826120e8565b92505060018060a01b03604086015116606085015260608501516122376080860182612144565b50608085015160a085015260a085015160c085015260c085015161225f60e086018215159052565b5060e0949094015192909301919091525090565b60008060006060848603121561228857600080fd5b83359250602084013567ffffffffffffffff808211156122a757600080fd5b6122b387838801611fad565b935060408601359150808211156122c957600080fd5b506122d686828701611fad565b9150509250925092565b6020808252600f908201526e2737ba1033b937bab81030b236b4b760891b604082015260600190565b6020808252600d908201526c0496e76616c69642067726f757609c1b604082015260600190565b60006020828403121561234257600080fd5b81518015158114611f9057600080fd5b6020808252601590820152741259195b9d1a5d1e481b9bdd081d995c9a599a5959605a1b604082015260600190565b634e487b7160e01b600052601160045260246000fd5b6000600182016123a9576123a9612381565b5060010190565b6000602082840312156123c257600080fd5b8151611f9081611eac565b6000602082840312156123df57600080fd5b5051919050565b6000816123f5576123f5612381565b506000190190565b634e487b7160e01b600052603260045260246000fd5b818103818111156103f5576103f5612381565b634e487b7160e01b600052603160045260246000fd5b602080825260139082015272155cd95c881b9bdd081c9959da5cdd195c9959606a1b604082015260600190565b600181811c9082168061247d57607f821691505b60208210810361249d57634e487b7160e01b600052602260045260246000fd5b50919050565b601f8211156124ef576000816000526020600020601f850160051c810160208610156124cc5750805b601f850160051c820191505b818110156124eb578281556001016124d8565b5050505b505050565b815167ffffffffffffffff81111561250e5761250e611f97565b6125228161251c8454612469565b846124a3565b602080601f831160018114612557576000841561253f5750858301515b600019600386901b1c1916600185901b1785556124eb565b600085815260208120601f198616915b8281101561258657888601518255948401946001909101908401612567565b50858210156125a45787850151600019600388901b60f8161c191681555b5050505050600190811b01905550565b6020815260006103f260208301846120e8565b6040815260006125da60408301856120e8565b82810360208401526125ec81856120e8565b9594505050505056fea2646970667358221220f6257f2bae4d0bf27fb6872f9fe19c50a69c7130aa388fd031fab00a2db0dd5964736f6c63430008170033",
  "linkReferences": {},
  "deployedLinkReferences": {}
}