{
  "_format": "hh-sol-artifact-1",
  "contractName": "EEGRegistry",
  "sourceName": "contracts/EEGRegistry.sol",
  "abi": [
    {
      "anonymous": false,
      "inputs": [
        {
          "indexed": true,
          "internalType": "address",
          "name": "user",
          "type": "address"
        },
        {
          "indexed": true,
          "internalType": "uint256",
          "name": "identityCommitment",
          "type": "uint256"
        },
        {
          "indexed": false,
          "internalType": "bool",
          "name": "verified",
          "type": "bool"
        }
      ],
      "name": "IdentityVerified",
      "type": "event"
    },
    {
      "anonymous": false,
      "inputs": [
        {
          "indexed": true,
          "internalType": "address",
          "name": "user",
          "type": "address"
        },
        {
          "indexed": true,
          "internalType": "uint256",
          "name": "identityCommitment",
          "type": "uint256"
        },
        {
          "indexed": false,
          "internalType": "uint256",
          "name": "timestamp",
          "type": "uint256"
        }
      ],
      "name": "UserRegistered",
      "type": "event"
    },
    {
      "inputs": [
        {
          "internalType": "uint256",
          "name": "",
          "type": "uint256"
        }
      ],
      "name": "commitmentToUser",
      "outputs": [
        {
          "internalType": "address",
          "name": "",
          "type": "address"
        }
      ],
      "stateMutability": "view",
      "type": "function"
    },
    {
      "inputs": [
        {
          "internalType": "uint256",
          "name": "_commitment",
          "type": "uint256"
        }
      ],
      "name": "getCommitmentUser",
      "outputs": [
        {
          "internalType": "address",
          "name": "",
          "type": "address"
        }
      ],
      "stateMutability": "view",
      "type": "function"
    },
    {
      "inputs": [
        {
          "internalType": "address",
          "name": "_user",
          "type": "address"
        }
      ],
      "name": "getUserCommitment",
      "outputs": [
        {
          "internalType": "uint256",
          "name": "",
          "type": "uint256"
        }
      ],
      "stateMutability": "view",
      "type": "function"
    },
    {
      "inputs": [
        {
          "internalType": "uint256",
          "name": "_commitment",
          "type": "uint256"
        }
      ],
      "name": "isIdentityVerified",
      "outputs": [
        {
          "internalType": "bool",
          "name": "",
          "type": "bool"
        }
      ],
      "stateMutability": "view",
      "type": "function"
    },
    {
      "inputs": [
        {
          "internalType": "address",
          "name": "_user",
          "type": "address"
        }
      ],
      "name": "isUserRegistered",
      "outputs": [
        {
          "internalType": "bool",
          "name": "",
          "type": "bool"
        }
      ],
      "stateMutability": "view",
      "type": "function"
    },
    {
      "inputs": [
        {
          "internalType": "uint256",
          "name": "_identityCommitment",
          "type": "uint256"
        }
      ],
      "name": "registerUser",
      "outputs": [],
      "stateMutability": "nonpayable",
      "type": "function"
    },
    {
      "inputs": [
        {
          "internalType": "address",
          "name": "",
          "type": "address"
        }
      ],
      "name": "registeredUsers",
      "outputs": [
        {
          "internalType": "bool",
          "name": "",
          "type": "bool"
        }
      ],
      "stateMutability": "view",
      "type": "function"
    },
    {
      "inputs": [],
      "name": "totalRegisteredUsers",
      "outputs": [
        {
          "internalType": "uint256",
          "name": "",
          "type": "uint256"
        }
      ],
      "stateMutability": "view",
      "type": "function"
    },
    {
      "inputs": [
        {
          "internalType": "address",
          "name": "",
          "type": "address"
        }
      ],
      "name": "userToCommitment",
      "outputs": [
        {
          "internalType": "uint256",
          "name": "",
          "type": "uint256"
        }
      ],
      "stateMutability": "view",
      "type": "function"
    },
    {
      "inputs": [
        {
          "internalType": "uint256",
          "name": "",
          "type": "uint256"
        }
      ],
      "name": "verifiedIdentities",
      "outputs": [
        {
          "internalType": "bool",
          "name": "",
          "type": "bool"
        }
      ],
      "stateMutability": "view",
      "type": "function"
    },
    {
      "inputs": [
        {
          "internalType": "address",
          "name": "_user",
          "type": "address"
        }
      ],
      "name": "verifyIdentity",
      "outputs": [],
      "stateMutability": "nonpayable",
      "type": "function"
    }
  ],
  "bytecode": "0x608060405234801561001057600080fd5b506105bb806100206000396000f3fe608060405234801561001057600080fd5b50600436106100a95760003560e01c8063588a929711610071578063588a929714610151578063aa2db12814610174578063b55337fe146101b5578063b5b90fd9146101d5578063d86c9916146101e8578063ed6760ed1461021157600080fd5b80630e50cee5146100ae578063163f7522146100e65780631bbfae0e146101125780633c7afca514610127578063415d6a011461013e575b600080fd5b6100d16100bc366004610515565b60036020526000908152604090205460ff1681565b60405190151581526020015b60405180910390f35b6100d16100f4366004610515565b6001600160a01b031660009081526003602052604090205460ff1690565b610125610120366004610545565b610234565b005b61013060045481565b6040519081526020016100dd565b61013061014c366004610515565b6103d7565b6100d161015f366004610545565b60009081526002602052604090205460ff1690565b61019d610182366004610545565b6000908152600160205260409020546001600160a01b031690565b6040516001600160a01b0390911681526020016100dd565b6101306101c3366004610515565b60006020819052908152604090205481565b6101256101e3366004610515565b610451565b61019d6101f6366004610545565b6001602052600090815260409020546001600160a01b031681565b6100d161021f366004610545565b60026020526000908152604090205460ff1681565b3360009081526003602052604090205460ff16156102995760405162461bcd60e51b815260206004820152601760248201527f5573657220616c7265616479207265676973746572656400000000000000000060448201526064015b60405180910390fd5b80806000036102df5760405162461bcd60e51b8152602060048201526012602482015271125b9d985b1a590818dbdb5b5a5d1b595b9d60721b6044820152606401610290565b6000818152600160205260409020546001600160a01b0316156103445760405162461bcd60e51b815260206004820152601760248201527f436f6d6d69746d656e7420616c726561647920757365640000000000000000006044820152606401610290565b33600081815260208181526040808320869055858352600180835281842080546001600160a01b0319168617905593835260039091528120805460ff191690921790915560048054916103968361055e565b9091555050604051428152829033907f47c8e83729a89f8b0c23b722e4c21f48295ddfcd683910c564e11e6b6037d01c906020015b60405180910390a35050565b6001600160a01b03811660009081526003602052604081205460ff166104355760405162461bcd60e51b8152602060048201526013602482015272155cd95c881b9bdd081c9959da5cdd195c9959606a1b6044820152606401610290565b506001600160a01b031660009081526020819052604090205490565b6001600160a01b03811660009081526003602052604090205460ff166104af5760405162461bcd60e51b8152602060048201526013602482015272155cd95c881b9bdd081c9959da5cdd195c9959606a1b6044820152606401610290565b6001600160a01b038116600081815260208181526040808320548084526002835292819020805460ff1916600190811790915590519081529192839290917f0efab3b364a59ccd1453901f3cdf75a69cd4e05fdd7068bb58712666a6ebf1d391016103cb565b60006020828403121561052757600080fd5b81356001600160a01b038116811461053e57600080fd5b9392505050565b60006020828403121561055757600080fd5b5035919050565b60006001820161057e57634e487b7160e01b600052601160045260246000fd5b506001019056fea2646970667358221220bf3c142f0e616479b4ca241f9d47aab9344b40aab563d1d7e6be222ef21c228864736f6c63430008170033",
  "linkReferences": {},
  "deployedLinkReferences": {}
}